{
  "abi": [
    {
      "inputs": [
        {
          "internalType": "address",
          "name": "_owner",
          "type": "address"
        }
      ],
      "name": "balanceOf",
      "outputs": [
        {
          "internalType": "uint256",
          "name": "",
          "type": "uint256"
        }
      ],
      "stateMutability": "view",
      "type": "function"
    },
    {
      "inputs": [],
      "name": "decimals",
      "outputs": [
        {
          "internalType": "uint256",
          "name": "",
          "type": "uint256"
        }
      ],
      "stateMutability": "pure",
      "type": "function"
    },
    {
      "inputs": [],
      "name": "name",
      "outputs": [
        {
          "internalType": "string",
          "name": "",
          "type": "string"
        }
      ],
      "stateMutability": "pure",
      "type": "function"
    },
    {
      "inputs": [],
      "name": "totalSupply",
      "outputs": [
        {
          "internalType": "uint256",
          "name": "",
          "type": "uint256"
        }
      ],
      "stateMutability": "pure",
      "type": "function"
    },
    {
      "inputs": [
        {
          "internalType": "address",
          "name": "_to",
          "type": "address"
        },
        {
          "internalType": "uint256",
          "name": "_amount",
          "type": "uint256"
        }
      ],
      "name": "transfer",
      "outputs": [],
      "stateMutability": "nonpayable",
      "type": "function"
    }
  ],
  "bytecode": {
    "object": "0x608060405234801561001057600080fd5b506102da806100206000396000f3fe608060405234801561001057600080fd5b50600436106100575760003560e01c806306fdde031461005c57806318160ddd14610093578063313ce567146100ac57806370a08231146100b3578063a9059cbb146100dc575b600080fd5b604080518082018252600c81526b26b0b73ab0b6102a37b5b2b760a11b6020820152905161008a91906101ac565b60405180910390f35b68056bc75e2d631000005b60405190815260200161008a565b601261009e565b61009e6100c1366004610216565b6001600160a01b031660009081526020819052604090205490565b6100ef6100ea366004610238565b6100f1565b005b6001600160a01b038216600090815260208190526040808220543383529082205461011c9190610278565b33600090815260208190526040812080549293508492909190610140908490610291565b90915550506001600160a01b0383166000908152602081905260408120805484929061016d908490610278565b90915550506001600160a01b03831660009081526020819052604080822054338352912054829161019d91610278565b146101a757600080fd5b505050565b600060208083528351808285015260005b818110156101d9578581018301518582016040015282016101bd565b506000604082860101526040601f19601f8301168501019250505092915050565b80356001600160a01b038116811461021157600080fd5b919050565b60006020828403121561022857600080fd5b610231826101fa565b9392505050565b6000806040838503121561024b57600080fd5b610254836101fa565b946020939093013593505050565b634e487b7160e01b600052601160045260246000fd5b8082018082111561028b5761028b610262565b92915050565b8181038181111561028b5761028b61026256fea2646970667358221220ae51a3e1628c7b27cfcc60948dcb56651ad7f3a82e8572514fdb660e78d6d39c64736f6c63430008150033",
    "linkReferences": {}
  },
  "methodIdentifiers": {
    "balanceOf(address)": "70a08231",
    "decimals()": "313ce567",
    "name()": "06fdde03",
    "totalSupply()": "18160ddd",
    "transfer(address,uint256)": "a9059cbb"
  },
  "id": 19
}